{
  "contractName": "SimpleContract",
  "abi": [
    {
      "constant": true,
      "inputs": [],
      "name": "value",
      "outputs": [
        {
          "name": "",
          "type": "int256"
        }
      ],
      "payable": false,
      "stateMutability": "view",
      "type": "function"
    },
    {
      "constant": false,
      "inputs": [
        {
          "name": "_value",
          "type": "int256"
        }
      ],
      "name": "add",
      "outputs": [],
      "payable": false,
      "stateMutability": "nonpayable",
      "type": "function"
    },
    {
      "inputs": [
        {
          "name": "initialValue",
          "type": "int256"
        }
      ],
      "payable": false,
      "stateMutability": "nonpayable",
      "type": "constructor"
    }
  ],
  "bytecode": "0x606060405260008055341561001357600080fd5b60405160208061011983398101604052808051906020019091905050806000819055505060d4806100456000396000f3006060604052600436106049576000357c0100000000000000000000000000000000000000000000000000000000900463ffffffff1680633fa4f24514604e57806387db03b7146074575b600080fd5b3415605857600080fd5b605e6094565b6040518082815260200191505060405180910390f35b3415607e57600080fd5b60926004808035906020019091905050609a565b005b60005481565b8060005401600081905550505600a165627a7a72305820527350fdacd2a6a17790e7b5949cbf253f8fb86d9f4e3a2c560a24c557b54db50029",
  "source": "pragma solidity ^0.4.15;\n\n// a simple contract just for testing smart contract interactions\n\ncontract SimpleContract {\n\n    int public value = 0;\n\n    function add(int _value) public {\n        value = value + _value;\n    }\n\n    function SimpleContract(int initialValue) {\n        value = initialValue;\n    }\n\n}",
  "sourcePath": "/Users/expede/Documents/Work/Finhaven/web3-server-tools/truffle/contracts/SimpleContract.sol",
  "compiler": {
    "name": "solc",
    "version": "0.4.18+commit.9cf6e910.Emscripten.clang"
  },
  "schemaVersion": "1.0.1",
  "updatedAt": "2018-03-24T03:04:50.908Z"
}